{
  "contractName": "Voting",
  "abi": [
    {
      "inputs": [],
      "stateMutability": "nonpayable",
      "type": "constructor"
    },
    {
      "anonymous": false,
      "inputs": [
        {
          "indexed": false,
          "internalType": "string",
          "name": "department",
          "type": "string"
        },
        {
          "indexed": false,
          "internalType": "string",
          "name": "winnerName",
          "type": "string"
        },
        {
          "indexed": false,
          "internalType": "uint256",
          "name": "voteCount",
          "type": "uint256"
        }
      ],
      "name": "WinnerCalculated",
      "type": "event"
    },
    {
      "inputs": [],
      "name": "admin",
      "outputs": [
        {
          "internalType": "address",
          "name": "",
          "type": "address"
        }
      ],
      "stateMutability": "view",
      "type": "function",
      "constant": true
    },
    {
      "inputs": [
        {
          "internalType": "uint256",
          "name": "",
          "type": "uint256"
        }
      ],
      "name": "candidates",
      "outputs": [
        {
          "internalType": "uint256",
          "name": "id",
          "type": "uint256"
        },
        {
          "internalType": "string",
          "name": "name",
          "type": "string"
        },
        {
          "internalType": "string",
          "name": "position",
          "type": "string"
        },
        {
          "internalType": "string",
          "name": "department",
          "type": "string"
        },
        {
          "internalType": "uint256",
          "name": "voteCount",
          "type": "uint256"
        }
      ],
      "stateMutability": "view",
      "type": "function",
      "constant": true
    },
    {
      "inputs": [],
      "name": "candidatesCount",
      "outputs": [
        {
          "internalType": "uint256",
          "name": "",
          "type": "uint256"
        }
      ],
      "stateMutability": "view",
      "type": "function",
      "constant": true
    },
    {
      "inputs": [
        {
          "internalType": "string",
          "name": "",
          "type": "string"
        }
      ],
      "name": "departmentWinners",
      "outputs": [
        {
          "internalType": "uint256",
          "name": "",
          "type": "uint256"
        }
      ],
      "stateMutability": "view",
      "type": "function",
      "constant": true
    },
    {
      "inputs": [],
      "name": "endTime",
      "outputs": [
        {
          "internalType": "uint256",
          "name": "",
          "type": "uint256"
        }
      ],
      "stateMutability": "view",
      "type": "function",
      "constant": true
    },
    {
      "inputs": [
        {
          "internalType": "address",
          "name": "",
          "type": "address"
        }
      ],
      "name": "hasVoted",
      "outputs": [
        {
          "internalType": "bool",
          "name": "",
          "type": "bool"
        }
      ],
      "stateMutability": "view",
      "type": "function",
      "constant": true
    },
    {
      "inputs": [],
      "name": "startTime",
      "outputs": [
        {
          "internalType": "uint256",
          "name": "",
          "type": "uint256"
        }
      ],
      "stateMutability": "view",
      "type": "function",
      "constant": true
    },
    {
      "inputs": [
        {
          "internalType": "string",
          "name": "_name",
          "type": "string"
        },
        {
          "internalType": "string",
          "name": "_position",
          "type": "string"
        },
        {
          "internalType": "string",
          "name": "_department",
          "type": "string"
        }
      ],
      "name": "addCandidate",
      "outputs": [],
      "stateMutability": "nonpayable",
      "type": "function"
    },
    {
      "inputs": [],
      "name": "finalizeCandidates",
      "outputs": [],
      "stateMutability": "nonpayable",
      "type": "function"
    },
    {
      "inputs": [
        {
          "internalType": "uint256",
          "name": "_startTime",
          "type": "uint256"
        },
        {
          "internalType": "uint256",
          "name": "_endTime",
          "type": "uint256"
        }
      ],
      "name": "setVotingTimes",
      "outputs": [],
      "stateMutability": "nonpayable",
      "type": "function"
    },
    {
      "inputs": [
        {
          "internalType": "uint256",
          "name": "_candidateId",
          "type": "uint256"
        }
      ],
      "name": "vote",
      "outputs": [],
      "stateMutability": "nonpayable",
      "type": "function"
    },
    {
      "inputs": [
        {
          "internalType": "string",
          "name": "_department",
          "type": "string"
        }
      ],
      "name": "getWinner",
      "outputs": [
        {
          "internalType": "string",
          "name": "",
          "type": "string"
        },
        {
          "internalType": "uint256",
          "name": "",
          "type": "uint256"
        }
      ],
      "stateMutability": "view",
      "type": "function",
      "constant": true
    }
  ],
  "bytecode": "0x608060405234801561001057600080fd5b50600680546001600160a01b031916331790556112d0806100326000396000f3fe608060405234801561001057600080fd5b50600436106100b45760003560e01c80635b80df90116100715780635b80df90146101405780636467267f1461016157806378e97925146101745780637d2e629e1461017c578063ad71f8dc1461018f578063f851a440146101a2576100b4565b80630121b93f146100b957806309eef43e146100ce5780630a0ea4e8146100f75780632d35a8a2146100ff5780633197cbb6146101145780633477ee2e1461011c575b600080fd5b6100cc6100c7366004610e60565b6101b7565b005b6100e16100dc366004610d73565b61025f565b6040516100ee9190610ef5565b60405180910390f35b6100cc610274565b6101076102c9565b6040516100ee919061118b565b6101076102cf565b61012f61012a366004610e60565b6102d5565b6040516100ee959493929190611194565b61015361014e366004610da1565b61049c565b6040516100ee929190610fc9565b61010761016f366004610da1565b610707565b610107610724565b6100cc61018a366004610e78565b61072a565b6100cc61019d366004610ddc565b61077e565b6101aa61085b565b6040516100ee9190610ee1565b60045442101580156101cb57506005544211155b6101f05760405162461bcd60e51b81526004016101e790611148565b60405180910390fd5b3360009081526002602052604090205460ff16156102205760405162461bcd60e51b81526004016101e790610feb565b600081815260208190526040812060040180549161023d8361125d565b9091555050336000908152600260205260409020805460ff1916600117905550565b60026020526000908152604090205460ff1681565b6006546001600160a01b0316331461029e5760405162461bcd60e51b81526004016101e790611022565b60055442116102bf5760405162461bcd60e51b81526004016101e7906110d1565b6102c761086a565b565b60035481565b60055481565b600060208190529081526040902080546001820180549192916102f790611222565b80601f016020809104026020016040519081016040528092919081815260200182805461032390611222565b80156103705780601f1061034557610100808354040283529160200191610370565b820191906000526020600020905b81548152906001019060200180831161035357829003601f168201915b50505050509080600201805461038590611222565b80601f01602080910402602001604051908101604052809291908181526020018280546103b190611222565b80156103fe5780601f106103d3576101008083540402835291602001916103fe565b820191906000526020600020905b8154815290600101906020018083116103e157829003601f168201915b50505050509080600301805461041390611222565b80601f016020809104026020016040519081016040528092919081815260200182805461043f90611222565b801561048c5780601f106104615761010080835404028352916020019161048c565b820191906000526020600020905b81548152906001019060200180831161046f57829003601f168201915b5050505050908060040154905085565b60606000806001846040516104b19190610ec5565b9081526020016040518091039020549050600081116104e25760405162461bcd60e51b81526004016101e790611065565b60008060008381526020019081526020016000206040518060a00160405290816000820154815260200160018201805461051b90611222565b80601f016020809104026020016040519081016040528092919081815260200182805461054790611222565b80156105945780601f1061056957610100808354040283529160200191610594565b820191906000526020600020905b81548152906001019060200180831161057757829003601f168201915b505050505081526020016002820180546105ad90611222565b80601f01602080910402602001604051908101604052809291908181526020018280546105d990611222565b80156106265780601f106105fb57610100808354040283529160200191610626565b820191906000526020600020905b81548152906001019060200180831161060957829003601f168201915b5050505050815260200160038201805461063f90611222565b80601f016020809104026020016040519081016040528092919081815260200182805461066b90611222565b80156106b85780601f1061068d576101008083540402835291602001916106b8565b820191906000526020600020905b81548152906001019060200180831161069b57829003601f168201915b5050505050815260200160048201548152505090506000816020015151116106f25760405162461bcd60e51b81526004016101e79061109c565b80602001518160800151935093505050915091565b805160208183018101805160018252928201919093012091525481565b60045481565b6006546001600160a01b031633146107545760405162461bcd60e51b81526004016101e790611022565b8181116107735760405162461bcd60e51b81526004016101e790611106565b600491909155600555565b6006546001600160a01b031633146107a85760405162461bcd60e51b81526004016101e790611022565b600380549060006107b88361125d565b90915550506040805160a0810182526003548082526020808301878152838501879052606084018690526000608085018190529283528282529390912082518155925180519293926108109260018501920190610c59565b506040820151805161082c916002840191602090910190610c59565b5060608201518051610848916003840191602090910190610c59565b5060808201518160040155905050505050565b6006546001600160a01b031681565b60015b6003548111610b0b5760008060008381526020019081526020016000206040518060a0016040529081600082015481526020016001820180546108af90611222565b80601f01602080910402602001604051908101604052809291908181526020018280546108db90611222565b80156109285780601f106108fd57610100808354040283529160200191610928565b820191906000526020600020905b81548152906001019060200180831161090b57829003601f168201915b5050505050815260200160028201805461094190611222565b80601f016020809104026020016040519081016040528092919081815260200182805461096d90611222565b80156109ba5780601f1061098f576101008083540402835291602001916109ba565b820191906000526020600020905b81548152906001019060200180831161099d57829003601f168201915b505050505081526020016003820180546109d390611222565b80601f01602080910402602001604051908101604052809291908181526020018280546109ff90611222565b8015610a4c5780601f10610a2157610100808354040283529160200191610a4c565b820191906000526020600020905b815481529060010190602001808311610a2f57829003601f168201915b50505050508152602001600482015481525050905060018160600151604051610a759190610ec5565b90815260200160405180910390205460001480610acc575060008060018360600151604051610aa49190610ec5565b9081526020016040518091039020548152602001908152602001600020600401548160800151115b15610af85780516060820151604051600191610ae791610ec5565b908152604051908190036020019020555b5080610b038161125d565b91505061086d565b5060015b6003548111610c565760008181526020819052604081206003018054610b3490611222565b80601f0160208091040260200160405190810160405280929190818152602001828054610b6090611222565b8015610bad5780601f10610b8257610100808354040283529160200191610bad565b820191906000526020600020905b815481529060010190602001808311610b9057829003601f168201915b5050505050905060008083815260200190815260200160002060000154600182604051610bda9190610ec5565b9081526020016040518091039020541415610c435760008281526020819052604090819020600481015491517f61e8cb7aa93ed722205a91c24f57a9a965c2ca219fdde280d7f90e4a630adc2492610c3a92859260019091019190610f00565b60405180910390a15b5080610c4e8161125d565b915050610b0f565b50565b828054610c6590611222565b90600052602060002090601f016020900481019282610c875760008555610ccd565b82601f10610ca057805160ff1916838001178555610ccd565b82800160010185558215610ccd579182015b82811115610ccd578251825591602001919060010190610cb2565b50610cd9929150610cdd565b5090565b5b80821115610cd95760008155600101610cde565b600082601f830112610d02578081fd5b813567ffffffffffffffff80821115610d1d57610d1d611284565b604051601f8301601f191681016020018281118282101715610d4157610d41611284565b604052828152848301602001861015610d58578384fd5b82602086016020830137918201602001929092529392505050565b600060208284031215610d84578081fd5b81356001600160a01b0381168114610d9a578182fd5b9392505050565b600060208284031215610db2578081fd5b813567ffffffffffffffff811115610dc8578182fd5b610dd484828501610cf2565b949350505050565b600080600060608486031215610df0578182fd5b833567ffffffffffffffff80821115610e07578384fd5b610e1387838801610cf2565b94506020860135915080821115610e28578384fd5b610e3487838801610cf2565b93506040860135915080821115610e49578283fd5b50610e5686828701610cf2565b9150509250925092565b600060208284031215610e71578081fd5b5035919050565b60008060408385031215610e8a578182fd5b50508035926020909101359150565b60008151808452610eb18160208601602086016111f2565b601f01601f19169290920160200192915050565b60008251610ed78184602087016111f2565b9190910192915050565b6001600160a01b0391909116815260200190565b901515815260200190565b600060608252610f136060830186610e99565b60208382038185015282865484600282049050600180831680610f3757607f831692505b858310811415610f5557634e487b7160e01b88526022600452602488fd5b610f5f838861118b565b9650808015610f755760018114610f8657610fb0565b60ff19851688528688019550610fb0565b610f8f8c6111e6565b895b85811015610faa5781548a820152908401908801610f91565b89019650505b5050505050809350505050826040830152949350505050565b600060408252610fdc6040830185610e99565b90508260208301529392505050565b60208082526017908201527f596f75206861766520616c726561647920766f7465642e000000000000000000604082015260600190565b60208082526023908201527f4f6e6c792061646d696e2063616e20706572666f726d2074686973206163746960408201526237b71760e91b606082015260800190565b6020808252601e908201527f4e6f2077696e6e657220666f722074686973206465706172746d656e742e0000604082015260600190565b6020808252818101527f57696e6e65722063616e64696461746520646f6573206e6f742065786973742e604082015260600190565b6020808252818101527f566f74696e6720706572696f6420686173206e6f7420656e646564207965742e604082015260600190565b60208082526022908201527f456e642074696d65206d7573742062652061667465722073746172742074696d604082015261329760f11b606082015260800190565b60208082526023908201527f566f74696e67206973206e6f7420616c6c6f776564206174207468697320746960408201526236b29760e91b606082015260800190565b90815260200190565b600086825260a060208301526111ad60a0830187610e99565b82810360408401526111bf8187610e99565b905082810360608401526111d38186610e99565b9150508260808301529695505050505050565b60009081526020902090565b60005b8381101561120d5781810151838201526020016111f5565b8381111561121c576000848401525b50505050565b60028104600182168061123657607f821691505b6020821081141561125757634e487b7160e01b600052602260045260246000fd5b50919050565b600060001982141561127d57634e487b7160e01b81526011600452602481fd5b5060010190565b634e487b7160e01b600052604160045260246000fdfea264697066735822122044dcacda4ff42fb648f08bf8c1db9fc5417ed70693fb71df1cf88435dcc0230064736f6c63430008000033",
  "immutableReferences": {},
  "source": "// SPDX-License-Identifier: MIT\r\npragma solidity ^0.8.0;\r\n\r\ncontract Voting {\r\n    struct Candidate {\r\n        uint id;\r\n        string name;\r\n        string position;\r\n        string department;\r\n        uint voteCount;\r\n    }\r\n\r\n    mapping(uint => Candidate) public candidates;\r\n    mapping(string => uint) public departmentWinners; // Maps department to winner ID\r\n    mapping(address => bool) public hasVoted;\r\n    uint public candidatesCount;\r\n    uint public startTime;\r\n    uint public endTime;\r\n\r\n    address public admin;\r\n\r\n    constructor() {\r\n        admin = msg.sender;\r\n    }\r\n\r\n    modifier onlyAdmin() {\r\n        require(msg.sender == admin, \"Only admin can perform this action.\");\r\n        _;\r\n    }\r\n\r\n    modifier hasNotVoted() {\r\n        require(!hasVoted[msg.sender], \"You have already voted.\");\r\n        _;\r\n    }\r\n\r\n    modifier withinVotingPeriod() {\r\n        require(block.timestamp >= startTime && block.timestamp <= endTime, \"Voting is not allowed at this time.\");\r\n        _;\r\n    }\r\n\r\n    function addCandidate(string memory _name, string memory _position, string memory _department) public onlyAdmin {\r\n        candidatesCount++;\r\n        candidates[candidatesCount] = Candidate(candidatesCount, _name, _position, _department, 0);\r\n    }\r\n\r\n    function finalizeCandidates() public onlyAdmin {\r\n        require(block.timestamp > endTime, \"Voting period has not ended yet.\");\r\n        calculateWinners();\r\n    }\r\n\r\n    function setVotingTimes(uint _startTime, uint _endTime) public onlyAdmin {\r\n        require(_endTime > _startTime, \"End time must be after start time.\");\r\n        startTime = _startTime;\r\n        endTime = _endTime;\r\n    }\r\n\r\n    function vote(uint _candidateId) public withinVotingPeriod hasNotVoted {\r\n        candidates[_candidateId].voteCount++;\r\n        hasVoted[msg.sender] = true;\r\n    }\r\n\r\n    event WinnerCalculated(string department, string winnerName, uint voteCount);\r\n\r\nfunction calculateWinners() internal {\r\n    for (uint i = 1; i <= candidatesCount; i++) {\r\n        Candidate memory candidate = candidates[i];\r\n        if (departmentWinners[candidate.department] == 0 || candidate.voteCount > candidates[departmentWinners[candidate.department]].voteCount) {\r\n            departmentWinners[candidate.department] = candidate.id;\r\n        }\r\n    }\r\n\r\n    // Emit events after calculation\r\n    for (uint i = 1; i <= candidatesCount; i++) {\r\n        string memory dept = candidates[i].department;\r\n        if (departmentWinners[dept] == candidates[i].id) {\r\n            emit WinnerCalculated(dept, candidates[i].name, candidates[i].voteCount);\r\n        }\r\n    }\r\n}\r\n\r\n\r\n    function getWinner(string memory _department) public view returns (string memory, uint) {\r\n        uint winnerId = departmentWinners[_department];\r\n        // Ensure that the department has a winner\r\n        require(winnerId > 0, \"No winner for this department.\");\r\n        Candidate memory winner = candidates[winnerId];\r\n        // Ensure that the winner exists\r\n        require(bytes(winner.name).length > 0, \"Winner candidate does not exist.\");\r\n        return (winner.name, winner.voteCount);\r\n    }\r\n}\r\n",
  "sourcePath": "C:\\Users\\Zzz\\OneDrive\\Desktop\\DAPP\\contracts\\Voting.sol",
  "compiler": {
    "name": "solc",
    "version": "0.8.0+commit.c7dfd78e.Emscripten.clang"
  },
  "schemaVersion": "3.4.16",
  "updatedAt": "2024-09-01T06:13:40.020Z",
  "networkType": "ethereum",
  "devdoc": {
    "kind": "dev",
    "methods": {},
    "version": 1
  },
  "userdoc": {
    "kind": "user",
    "methods": {},
    "version": 1
  }
}